{
  "abi": [
    {
      "inputs": [
        {
          "internalType": "contract IEntryPoint",
          "name": "_entryPoint",
          "type": "address"
        }
      ],
      "stateMutability": "nonpayable",
      "type": "constructor"
    },
    {
      "inputs": [],
      "name": "accountImplementation",
      "outputs": [
        {
          "internalType": "contract PermissiveAccount",
          "name": "",
          "type": "address"
        }
      ],
      "stateMutability": "view",
      "type": "function"
    },
    {
      "inputs": [
        {
          "internalType": "address",
          "name": "owner",
          "type": "address"
        },
        {
          "internalType": "uint256",
          "name": "salt",
          "type": "uint256"
        }
      ],
      "name": "createAccount",
      "outputs": [
        {
          "internalType": "contract PermissiveAccount",
          "name": "ret",
          "type": "address"
        }
      ],
      "stateMutability": "nonpayable",
      "type": "function"
    },
    {
      "inputs": [
        {
          "internalType": "address",
          "name": "owner",
          "type": "address"
        },
        {
          "internalType": "uint256",
          "name": "salt",
          "type": "uint256"
        }
      ],
      "name": "getAddress",
      "outputs": [
        {
          "internalType": "address",
          "name": "",
          "type": "address"
        }
      ],
      "stateMutability": "view",
      "type": "function"
    }
  ],
  "bytecode": {
    "object": "0x60a060405234801561001057600080fd5b50604051612de9380380612de983398101604081905261002f91610088565b8060405161003c9061007b565b6001600160a01b039091168152602001604051809103906000f080158015610068573d6000803e3d6000fd5b506001600160a01b0316608052506100b8565b61208380610d6683390190565b60006020828403121561009a57600080fd5b81516001600160a01b03811681146100b157600080fd5b9392505050565b608051610c866100e060003960008181604b0152818161011401526102580152610c866000f3fe608060405234801561001057600080fd5b50600436106100415760003560e01c806311464fbe146100465780635fbfb9cf146100965780638cb84e18146100a9575b600080fd5b61006d7f000000000000000000000000000000000000000000000000000000000000000081565b60405173ffffffffffffffffffffffffffffffffffffffff909116815260200160405180910390f35b61006d6100a436600461039d565b6100bc565b61006d6100b736600461039d565b6101ee565b6000806100c984846101ee565b905073ffffffffffffffffffffffffffffffffffffffff81163b80156100f1575090506101e8565b60405173ffffffffffffffffffffffffffffffffffffffff8616602482015284907f000000000000000000000000000000000000000000000000000000000000000090604401604080517fffffffffffffffffffffffffffffffffffffffffffffffffffffffffffffffe08184030181529181526020820180517bffffffffffffffffffffffffffffffffffffffffffffffffffffffff167fc4d66de800000000000000000000000000000000000000000000000000000000179052516101b790610390565b6101c2929190610406565b8190604051809103906000f59050801580156101e2573d6000803e3d6000fd5b50925050505b92915050565b60006103578260001b6040518060200161020790610390565b7fffffffffffffffffffffffffffffffffffffffffffffffffffffffffffffffe082820381018352601f90910116604081905273ffffffffffffffffffffffffffffffffffffffff871660248201527f000000000000000000000000000000000000000000000000000000000000000090604401604080517fffffffffffffffffffffffffffffffffffffffffffffffffffffffffffffffe0818403018152918152602080830180517bffffffffffffffffffffffffffffffffffffffffffffffffffffffff167fc4d66de800000000000000000000000000000000000000000000000000000000179052905161030093929101610406565b604080517fffffffffffffffffffffffffffffffffffffffffffffffffffffffffffffffe08184030181529082905261033c9291602001610474565b6040516020818303038152906040528051906020012061035e565b9392505050565b60006103578383306000604051836040820152846020820152828152600b8101905060ff815360559020949350505050565b6107ad806104a483390190565b600080604083850312156103b057600080fd5b823573ffffffffffffffffffffffffffffffffffffffff811681146103d457600080fd5b946020939093013593505050565b60005b838110156103fd5781810151838201526020016103e5565b50506000910152565b73ffffffffffffffffffffffffffffffffffffffff8316815260406020820152600082518060408401526104418160608501602087016103e2565b601f017fffffffffffffffffffffffffffffffffffffffffffffffffffffffffffffffe016919091016060019392505050565b600083516104868184602088016103e2565b83519083019061049a8183602088016103e2565b0194935050505056fe60806040526040516107ad3803806107ad83398101604081905261002291610319565b61002e82826000610035565b5050610436565b61003e8361006b565b60008251118061004b5750805b156100665761006483836100ab60201b6100291760201c565b505b505050565b610074816100d7565b6040516001600160a01b038216907fbc7cd75a20ee27fd9adebab32041f755214dbc6bffa90cc0225b39da2e5c2d3b90600090a250565b60606100d08383604051806060016040528060278152602001610786602791396101a9565b9392505050565b6100ea8161022260201b6100551760201c565b6101515760405162461bcd60e51b815260206004820152602d60248201527f455243313936373a206e657720696d706c656d656e746174696f6e206973206e60448201526c1bdd08184818dbdb9d1c9858dd609a1b60648201526084015b60405180910390fd5b806101887f360894a13ba1a3210667c828492db98dca3e2076cc3735a920a3ca505d382bbc60001b61023160201b6100711760201c565b80546001600160a01b0319166001600160a01b039290921691909117905550565b6060600080856001600160a01b0316856040516101c691906103e7565b600060405180830381855af49150503d8060008114610201576040519150601f19603f3d011682016040523d82523d6000602084013e610206565b606091505b50909250905061021886838387610234565b9695505050505050565b6001600160a01b03163b151590565b90565b606083156102a357825160000361029c576001600160a01b0385163b61029c5760405162461bcd60e51b815260206004820152601d60248201527f416464726573733a2063616c6c20746f206e6f6e2d636f6e74726163740000006044820152606401610148565b50816102ad565b6102ad83836102b5565b949350505050565b8151156102c55781518083602001fd5b8060405162461bcd60e51b81526004016101489190610403565b634e487b7160e01b600052604160045260246000fd5b60005b838110156103105781810151838201526020016102f8565b50506000910152565b6000806040838503121561032c57600080fd5b82516001600160a01b038116811461034357600080fd5b60208401519092506001600160401b038082111561036057600080fd5b818501915085601f83011261037457600080fd5b815181811115610386576103866102df565b604051601f8201601f19908116603f011681019083821181831017156103ae576103ae6102df565b816040528281528860208487010111156103c757600080fd5b6103d88360208301602088016102f5565b80955050505050509250929050565b600082516103f98184602087016102f5565b9190910192915050565b60208152600082518060208401526104228160408501602087016102f5565b601f01601f19169190910160400192915050565b610341806104456000396000f3fe60806040523661001357610011610017565b005b6100115b610027610022610074565b6100b9565b565b606061004e83836040518060600160405280602781526020016102e5602791396100dd565b9392505050565b73ffffffffffffffffffffffffffffffffffffffff163b151590565b90565b60006100b47f360894a13ba1a3210667c828492db98dca3e2076cc3735a920a3ca505d382bbc5473ffffffffffffffffffffffffffffffffffffffff1690565b905090565b3660008037600080366000845af43d6000803e8080156100d8573d6000f35b3d6000fd5b60606000808573ffffffffffffffffffffffffffffffffffffffff16856040516101079190610277565b600060405180830381855af49150503d8060008114610142576040519150601f19603f3d011682016040523d82523d6000602084013e610147565b606091505b509150915061015886838387610162565b9695505050505050565b606083156101fd5782516000036101f65773ffffffffffffffffffffffffffffffffffffffff85163b6101f6576040517f08c379a000000000000000000000000000000000000000000000000000000000815260206004820152601d60248201527f416464726573733a2063616c6c20746f206e6f6e2d636f6e747261637400000060448201526064015b60405180910390fd5b5081610207565b610207838361020f565b949350505050565b81511561021f5781518083602001fd5b806040517f08c379a00000000000000000000000000000000000000000000000000000000081526004016101ed9190610293565b60005b8381101561026e578181015183820152602001610256565b50506000910152565b60008251610289818460208701610253565b9190910192915050565b60208152600082518060208401526102b2816040850160208701610253565b601f017fffffffffffffffffffffffffffffffffffffffffffffffffffffffffffffffe016919091016040019291505056fe416464726573733a206c6f772d6c6576656c2064656c65676174652063616c6c206661696c6564a2646970667358221220ff9440bdf59c66a8b6eaa958ff255c276697f2cdf49fb94b1068a45a5bea484d64736f6c63430008120033416464726573733a206c6f772d6c6576656c2064656c65676174652063616c6c206661696c6564a264697066735822122001899bc92086a3762e27e1c1d841f377fc2155e5f0c06f18007808d54a4e3c8464736f6c6343000812003360a06040523480156200001157600080fd5b5060405162002083380380620020838339810160408190526200003491620000a1565b6200003f3362000051565b6001600160a01b0316608052620000d3565b600080546001600160a01b038381166001600160a01b0319831681178455604051919092169283917f8be0079c531659141344cd1fd0a4f28419497f9722a3daafe3b4186f6b6457e09190a35050565b600060208284031215620000b457600080fd5b81516001600160a01b0381168114620000cc57600080fd5b9392505050565b608051611f86620000fd6000396000818161025101528181610a9c01526111810152611f866000f3fe6080604052600436106100d65760003560e01c8063996db2fc1161007f578063be858df111610059578063be858df114610275578063c4d66de814610295578063ea1efff4146102b5578063f2fde38b146102d557600080fd5b8063996db2fc146101ff578063affed0e01461021f578063b0d691fe1461024257600080fd5b8063749cd995116100b0578063749cd995146101595780638da5cb5b14610186578063926b3dfa146101d257600080fd5b80630825d1fc146100e25780635fe4efb614610115578063715018a61461014257600080fd5b366100dd57005b600080fd5b3480156100ee57600080fd5b506101026100fd366004611752565b6102f5565b6040519081526020015b60405180910390f35b34801561012157600080fd5b506101026101303660046117b9565b60026020526000908152604090205481565b34801561014e57600080fd5b506101576105d5565b005b34801561016557600080fd5b506101026101743660046117b9565b60016020526000908152604090205481565b34801561019257600080fd5b5060005473ffffffffffffffffffffffffffffffffffffffff165b60405173ffffffffffffffffffffffffffffffffffffffff909116815260200161010c565b3480156101de57600080fd5b506101026101ed3660046117b9565b60036020526000908152604090205481565b34801561020b57600080fd5b5061015761021a36600461190b565b6105e9565b34801561022b57600080fd5b506004546bffffffffffffffffffffffff16610102565b34801561024e57600080fd5b507f00000000000000000000000000000000000000000000000000000000000000006101ad565b34801561028157600080fd5b50610157610290366004611b3d565b610742565b3480156102a157600080fd5b506101576102b03660046117b9565b610880565b3480156102c157600080fd5b506101576102d0366004611ba1565b610940565b3480156102e157600080fd5b506101576102f03660046117b9565b6109d0565b60006102ff610a84565b61030c6040860186611bdc565b905060000361031e5761031e85610b23565b6000610377856040517f19457468657265756d205369676e6564204d6573736167653a0a3332000000006020820152603c8101829052600090605c01604051602081830303815290604052805190602001209050919050565b90506103c761038a610140880188611bdc565b8080601f0160208091040260200160405190810160405280939291908181526020018383808284376000920191909152508593925050610bea9050565b73ffffffffffffffffffffffffffffffffffffffff166103fc60005473ffffffffffffffffffffffffffffffffffffffff1690565b73ffffffffffffffffffffffffffffffffffffffff16146105c3576000806104276060890189611bdc565b610435916004908290611c41565b8101906104429190611c6b565b9450945050505061049a8880610140019061045d9190611bdc565b8080601f0160208091040260200160405190810160405280939291908181526020018383808284376000920191909152508793925050610bea9050565b73ffffffffffffffffffffffffffffffffffffffff16826000015173ffffffffffffffffffffffffffffffffffffffff16146104d557600193505b6104df8282610742565b6104e98883610c10565b815173ffffffffffffffffffffffffffffffffffffffff1660009081526001602052604090205485111561058557815173ffffffffffffffffffffffffffffffffffffffff16600090815260016020526040908190205490517faffdea3200000000000000000000000000000000000000000000000000000000815261057c918791600401918252602082015260400190565b60405180910390fd5b815173ffffffffffffffffffffffffffffffffffffffff16600090815260016020526040812080548792906105bb908490611d3f565b909155505050505b6105cc83611008565b50949350505050565b6105dd611073565b6105e760006110f4565b565b6105f1611169565b60005473ffffffffffffffffffffffffffffffffffffffff1633146106bb5760a083013515610668578260a001354210610663576040517f4203b3b900000000000000000000000000000000000000000000000000000000815242600482015260a0840135602482015260440161057c565b6106bb565b60c0830135156106bb578260c0013543106106bb576040517f4203b3b900000000000000000000000000000000000000000000000000000000815243600482015260c0840135602482015260440161057c565b6000808773ffffffffffffffffffffffffffffffffffffffff1687876040516106e49190611d76565b60006040518083038185875af1925050503d8060008114610721576040519150601f19603f3d011682016040523d82523d6000602084013e610726565b606091505b50915091508161073857805160208201fd5b5050505050505050565b8151602080840151604080860151608087015160a088015160c089015193516000976107d697909695910173ffffffffffffffffffffffffffffffffffffffff968716815294861660208601527fffffffff0000000000000000000000000000000000000000000000000000000093909316604085015293166060830152608082019290925260a081019190915260c00190565b604080517fffffffffffffffffffffffffffffffffffffffffffffffffffffffffffffffe08184030181529181528151602092830120855173ffffffffffffffffffffffffffffffffffffffff16600090815260039093529082205490925061084190849084611250565b90508061087a576040517f09bde33900000000000000000000000000000000000000000000000000000000815260040160405180910390fd5b50505050565b6004546c01000000000000000000000000900460ff16156108fd576040517f08c379a000000000000000000000000000000000000000000000000000000000815260206004820152601c60248201527f436f6e747261637420616c726561647920696e697469616c697a656400000000604482015260640161057c565b600480547fffffffffffffffffffffffffffffffffffffff00ffffffffffffffffffffffff166c0100000000000000000000000017905561093d816110f4565b50565b610948611169565b73ffffffffffffffffffffffffffffffffffffffff8416600081815260036020908152604080832080549088905560018352818420869055600283529281902086905580519384529083018290528201859052907fdcd45556838facc5052adb56ffd031a070dc3ea40214cb9fe9a4cdc48c70ffaf9060600160405180910390a15050505050565b6109d8611073565b73ffffffffffffffffffffffffffffffffffffffff8116610a7b576040517f08c379a000000000000000000000000000000000000000000000000000000000815260206004820152602660248201527f4f776e61626c653a206e6577206f776e657220697320746865207a65726f206160448201527f6464726573730000000000000000000000000000000000000000000000000000606482015260840161057c565b61093d816110f4565b3373ffffffffffffffffffffffffffffffffffffffff7f000000000000000000000000000000000000000000000000000000000000000016146105e7576040517f08c379a000000000000000000000000000000000000000000000000000000000815260206004820152601c60248201527f6163636f756e743a206e6f742066726f6d20456e747279506f696e7400000000604482015260640161057c565b6004805460208301359190600090610b48906bffffffffffffffffffffffff16611d92565b91906101000a8154816bffffffffffffffffffffffff02191690836bffffffffffffffffffffffff16021790556bffffffffffffffffffffffff161461093d576040517f08c379a000000000000000000000000000000000000000000000000000000000815260206004820152601660248201527f6163636f756e743a20696e76616c6964206e6f6e636500000000000000000000604482015260640161057c565b6000806000610bf98585611266565b91509150610c06816112ab565b5090505b92915050565b60008080610c216060860186611bdc565b610c2f916004908290611c41565b810190610c3c9190611c6b565b5050925092509250610c4e838361145e565b610c578161150a565b8273ffffffffffffffffffffffffffffffffffffffff16846020015173ffffffffffffffffffffffffffffffffffffffff1614610ce65760208401516040517fdd2a304500000000000000000000000000000000000000000000000000000000815273ffffffffffffffffffffffffffffffffffffffff8086166004830152909116602482015260440161057c565b835173ffffffffffffffffffffffffffffffffffffffff16600090815260026020526040902054821115610d7957835173ffffffffffffffffffffffffffffffffffffffff16600090815260026020526040908190205490517fcbaaf65b00000000000000000000000000000000000000000000000000000000815261057c918491600401918252602082015260400190565b835173ffffffffffffffffffffffffffffffffffffffff1660009081526002602052604081208054849290610daf908490611d3f565b909155505060608401516040517f56cbea8000000000000000000000000000000000000000000000000000000000815273__$194b529bd82551745a66c98832e43fdf3e$__916356cbea8091610e0a91908590600401611e07565b602060405180830381865af4158015610e27573d6000803e3d6000fd5b505050506040513d601f19601f82011682018060405250810190610e4b9190611e35565b50610e5581611e57565b7bffffffffffffffffffffffffffffffffffffffffffffffffffffffff191684604001517bffffffffffffffffffffffffffffffffffffffffffffffffffffffff191614610f0957610ea681611e57565b60408086015190517f5e87799e0000000000000000000000000000000000000000000000000000000081527fffffffff0000000000000000000000000000000000000000000000000000000092831660048201529116602482015260440161057c565b60a084015115801590610f1f575060c084015115155b15610f56576040517f868a64de00000000000000000000000000000000000000000000000000000000815260040160405180910390fd5b608084015173ffffffffffffffffffffffffffffffffffffffff16156110015760808401516101208601358601601401359073ffffffffffffffffffffffffffffffffffffffff808316911614610fff5760808501516040517fa91e2cb200000000000000000000000000000000000000000000000000000000815273ffffffffffffffffffffffffffffffffffffffff8084166004830152909116602482015260440161057c565b505b5050505050565b801561093d5760405160009033907fffffffffffffffffffffffffffffffffffffffffffffffffffffffffffffffff90849084818181858888f193505050503d8060008114611001576040519150601f19603f3d011682016040523d82523d6000602084013e611001565b60005473ffffffffffffffffffffffffffffffffffffffff1633146105e7576040517f08c379a000000000000000000000000000000000000000000000000000000000815260206004820181905260248201527f4f776e61626c653a2063616c6c6572206973206e6f7420746865206f776e6572604482015260640161057c565b6000805473ffffffffffffffffffffffffffffffffffffffff8381167fffffffffffffffffffffffff0000000000000000000000000000000000000000831681178455604051919092169283917f8be0079c531659141344cd1fd0a4f28419497f9722a3daafe3b4186f6b6457e09190a35050565b3373ffffffffffffffffffffffffffffffffffffffff7f00000000000000000000000000000000000000000000000000000000000000001614806111c4575060005473ffffffffffffffffffffffffffffffffffffffff1633145b6105e7576040517f08c379a000000000000000000000000000000000000000000000000000000000815260206004820152602560248201527f6163636f756e743a206e6f742066726f6d20456e747279506f696e74206f722060448201527f6f776e6572000000000000000000000000000000000000000000000000000000606482015260840161057c565b60008261125d8584611599565b14949350505050565b600080825160410361129c5760208301516040840151606085015160001a611290878285856115de565b945094505050506112a4565b506000905060025b9250929050565b60008160048111156112bf576112bf611ea7565b036112c75750565b60018160048111156112db576112db611ea7565b03611342576040517f08c379a000000000000000000000000000000000000000000000000000000000815260206004820152601860248201527f45434453413a20696e76616c6964207369676e61747572650000000000000000604482015260640161057c565b600281600481111561135657611356611ea7565b036113bd576040517f08c379a000000000000000000000000000000000000000000000000000000000815260206004820152601f60248201527f45434453413a20696e76616c6964207369676e6174757265206c656e67746800604482015260640161057c565b60038160048111156113d1576113d1611ea7565b0361093d576040517f08c379a000000000000000000000000000000000000000000000000000000000815260206004820152602260248201527f45434453413a20696e76616c6964207369676e6174757265202773272076616c60448201527f7565000000000000000000000000000000000000000000000000000000000000606482015260840161057c565b60405173ffffffffffffffffffffffffffffffffffffffff831660248201526044810182905261150690606401604080517fffffffffffffffffffffffffffffffffffffffffffffffffffffffffffffffe08184030181529190526020810180517bffffffffffffffffffffffffffffffffffffffffffffffffffffffff167f2243cfa3000000000000000000000000000000000000000000000000000000001790526116cd565b5050565b61093d8160405160240161151e9190611ed6565b604080517fffffffffffffffffffffffffffffffffffffffffffffffffffffffffffffffe08184030181529190526020810180517bffffffffffffffffffffffffffffffffffffffffffffffffffffffff167f0be77f56000000000000000000000000000000000000000000000000000000001790526116cd565b600081815b8451811015610c06576115ca828683815181106115bd576115bd611ee9565b60200260200101516116ee565b9150806115d681611f18565b91505061159e565b6000807f7fffffffffffffffffffffffffffffff5d576e7357a4501ddfe92f46681b20a083111561161557506000905060036116c4565b6040805160008082526020820180845289905260ff881692820192909252606081018690526080810185905260019060a0016020604051602081039080840390855afa158015611669573d6000803e3d6000fd5b50506040517fffffffffffffffffffffffffffffffffffffffffffffffffffffffffffffffe0015191505073ffffffffffffffffffffffffffffffffffffffff81166116bd576000600192509250506116c4565b9150600090505b94509492505050565b80516a636f6e736f6c652e6c6f67602083016000808483855afa5050505050565b600081831061170a576000828152602084905260409020611719565b60008381526020839052604090205b9392505050565b73ffffffffffffffffffffffffffffffffffffffff8116811461093d57600080fd5b803561174d81611720565b919050565b6000806000806080858703121561176857600080fd5b843567ffffffffffffffff81111561177f57600080fd5b8501610160818803121561179257600080fd5b93506020850135925060408501356117a981611720565b9396929550929360600135925050565b6000602082840312156117cb57600080fd5b813561171981611720565b7f4e487b7100000000000000000000000000000000000000000000000000000000600052604160045260246000fd5b60405160e0810167ffffffffffffffff81118282101715611828576118286117d6565b60405290565b604051601f82017fffffffffffffffffffffffffffffffffffffffffffffffffffffffffffffffe016810167ffffffffffffffff81118282101715611875576118756117d6565b604052919050565b600082601f83011261188e57600080fd5b813567ffffffffffffffff8111156118a8576118a86117d6565b6118d960207fffffffffffffffffffffffffffffffffffffffffffffffffffffffffffffffe0601f8401160161182e565b8181528460208386010111156118ee57600080fd5b816020850160208301376000918101602001919091529392505050565b60008060008060008060a0878903121561192457600080fd5b863561192f81611720565b955060208701359450604087013567ffffffffffffffff8082111561195357600080fd5b61195f8a838b0161187d565b9550606089013591508082111561197557600080fd5b9088019060e0828b03121561198957600080fd5b9093506080880135908082111561199f57600080fd5b818901915089601f8301126119b357600080fd5b8135818111156119c257600080fd5b8a60208260051b85010111156119d757600080fd5b6020830194508093505050509295509295509295565b80357fffffffff000000000000000000000000000000000000000000000000000000008116811461174d57600080fd5b600060e08284031215611a2f57600080fd5b611a37611805565b9050611a4282611742565b8152611a5060208301611742565b6020820152611a61604083016119ed565b6040820152606082013567ffffffffffffffff811115611a8057600080fd5b611a8c8482850161187d565b606083015250611a9e60808301611742565b608082015260a082013560a082015260c082013560c082015292915050565b600082601f830112611ace57600080fd5b8135602067ffffffffffffffff821115611aea57611aea6117d6565b8160051b611af982820161182e565b9283528481018201928281019087851115611b1357600080fd5b83870192505b84831015611b3257823582529183019190830190611b19565b979650505050505050565b60008060408385031215611b5057600080fd5b823567ffffffffffffffff80821115611b6857600080fd5b611b7486838701611a1d565b93506020850135915080821115611b8a57600080fd5b50611b9785828601611abd565b9150509250929050565b60008060008060808587031215611bb757600080fd5b8435611bc281611720565b966020860135965060408601359560600135945092505050565b60008083357fffffffffffffffffffffffffffffffffffffffffffffffffffffffffffffffe1843603018112611c1157600080fd5b83018035915067ffffffffffffffff821115611c2c57600080fd5b6020019150368190038213156112a457600080fd5b60008085851115611c5157600080fd5b83861115611c5e57600080fd5b5050820193919092039150565b600080600080600060a08688031215611c8357600080fd5b8535611c8e81611720565b945060208601359350604086013567ffffffffffffffff80821115611cb257600080fd5b611cbe89838a0161187d565b94506060880135915080821115611cd457600080fd5b611ce089838a01611a1d565b93506080880135915080821115611cf657600080fd5b50611d0388828901611abd565b9150509295509295909350565b7f4e487b7100000000000000000000000000000000000000000000000000000000600052601160045260246000fd5b81810381811115610c0a57610c0a611d10565b60005b83811015611d6d578181015183820152602001611d55565b50506000910152565b60008251611d88818460208701611d52565b9190910192915050565b60006bffffffffffffffffffffffff808316818103611db357611db3611d10565b6001019392505050565b60008151808452611dd5816020860160208601611d52565b601f017fffffffffffffffffffffffffffffffffffffffffffffffffffffffffffffffe0169290920160200192915050565b604081526000611e1a6040830185611dbd565b8281036020840152611e2c8185611dbd565b95945050505050565b600060208284031215611e4757600080fd5b8151801515811461171957600080fd5b6000815160208301517fffffffff0000000000000000000000000000000000000000000000000000000080821693506004831015611e9f5780818460040360031b1b83161693505b505050919050565b7f4e487b7100000000000000000000000000000000000000000000000000000000600052602160045260246000fd5b6020815260006117196020830184611dbd565b7f4e487b7100000000000000000000000000000000000000000000000000000000600052603260045260246000fd5b60007fffffffffffffffffffffffffffffffffffffffffffffffffffffffffffffffff8203611f4957611f49611d10565b506001019056fea26469706673582212201cda02094cbec911a8e04df4dbaeeb1e29e86dfe1be798b44f90bdf32982925664736f6c63430008120033",
    "linkReferences": {
      "src/core/AllowanceCalldata.sol": {
        "AllowanceCalldata": [
          {
            "start": 7236,
            "length": 20
          }
        ]
      }
    }
  },
  "methodIdentifiers": {
    "accountImplementation()": "11464fbe",
    "createAccount(address,uint256)": "5fbfb9cf",
    "getAddress(address,uint256)": "8cb84e18"
  },
  "id": 48
}